{
  "contractName": "XYZCoin",
  "abi": [
    {
      "constant": true,
      "inputs": [],
      "name": "token_symbol",
      "outputs": [
        {
          "name": "",
          "type": "string"
        }
      ],
      "payable": false,
      "stateMutability": "view",
      "type": "function"
    },
    {
      "constant": true,
      "inputs": [
        {
          "name": "",
          "type": "address"
        }
      ],
      "name": "balances",
      "outputs": [
        {
          "name": "",
          "type": "uint256"
        }
      ],
      "payable": false,
      "stateMutability": "view",
      "type": "function"
    },
    {
      "constant": true,
      "inputs": [],
      "name": "token_decimals",
      "outputs": [
        {
          "name": "",
          "type": "uint8"
        }
      ],
      "payable": false,
      "stateMutability": "view",
      "type": "function"
    },
    {
      "constant": true,
      "inputs": [],
      "name": "token_totalSupply",
      "outputs": [
        {
          "name": "",
          "type": "uint256"
        }
      ],
      "payable": false,
      "stateMutability": "view",
      "type": "function"
    },
    {
      "constant": true,
      "inputs": [
        {
          "name": "",
          "type": "address"
        },
        {
          "name": "",
          "type": "address"
        }
      ],
      "name": "allowed",
      "outputs": [
        {
          "name": "",
          "type": "uint256"
        }
      ],
      "payable": false,
      "stateMutability": "view",
      "type": "function"
    },
    {
      "constant": true,
      "inputs": [],
      "name": "token_name",
      "outputs": [
        {
          "name": "",
          "type": "string"
        }
      ],
      "payable": false,
      "stateMutability": "view",
      "type": "function"
    },
    {
      "inputs": [],
      "payable": false,
      "stateMutability": "nonpayable",
      "type": "constructor"
    },
    {
      "anonymous": false,
      "inputs": [
        {
          "indexed": true,
          "name": "_from",
          "type": "address"
        },
        {
          "indexed": true,
          "name": "_to",
          "type": "address"
        },
        {
          "indexed": false,
          "name": "_value",
          "type": "uint256"
        }
      ],
      "name": "Transfer",
      "type": "event"
    },
    {
      "anonymous": false,
      "inputs": [
        {
          "indexed": true,
          "name": "_owner",
          "type": "address"
        },
        {
          "indexed": true,
          "name": "_spender",
          "type": "address"
        },
        {
          "indexed": false,
          "name": "_value",
          "type": "uint256"
        }
      ],
      "name": "Approval",
      "type": "event"
    },
    {
      "constant": true,
      "inputs": [],
      "name": "name",
      "outputs": [
        {
          "name": "",
          "type": "string"
        }
      ],
      "payable": false,
      "stateMutability": "view",
      "type": "function"
    },
    {
      "constant": true,
      "inputs": [],
      "name": "symbol",
      "outputs": [
        {
          "name": "",
          "type": "string"
        }
      ],
      "payable": false,
      "stateMutability": "view",
      "type": "function"
    },
    {
      "constant": true,
      "inputs": [],
      "name": "decimals",
      "outputs": [
        {
          "name": "",
          "type": "uint8"
        }
      ],
      "payable": false,
      "stateMutability": "view",
      "type": "function"
    },
    {
      "constant": true,
      "inputs": [],
      "name": "totalSupply",
      "outputs": [
        {
          "name": "",
          "type": "uint256"
        }
      ],
      "payable": false,
      "stateMutability": "view",
      "type": "function"
    },
    {
      "constant": true,
      "inputs": [
        {
          "name": "_owner",
          "type": "address"
        }
      ],
      "name": "balanceOf",
      "outputs": [
        {
          "name": "",
          "type": "uint256"
        }
      ],
      "payable": false,
      "stateMutability": "view",
      "type": "function"
    },
    {
      "constant": false,
      "inputs": [
        {
          "name": "_to",
          "type": "address"
        },
        {
          "name": "_value",
          "type": "uint256"
        }
      ],
      "name": "transfer",
      "outputs": [
        {
          "name": "",
          "type": "bool"
        }
      ],
      "payable": false,
      "stateMutability": "nonpayable",
      "type": "function"
    },
    {
      "constant": false,
      "inputs": [
        {
          "name": "_from",
          "type": "address"
        },
        {
          "name": "_to",
          "type": "address"
        },
        {
          "name": "_value",
          "type": "uint256"
        }
      ],
      "name": "transferFrom",
      "outputs": [
        {
          "name": "",
          "type": "bool"
        }
      ],
      "payable": false,
      "stateMutability": "nonpayable",
      "type": "function"
    },
    {
      "constant": false,
      "inputs": [
        {
          "name": "_spender",
          "type": "address"
        },
        {
          "name": "_value",
          "type": "uint256"
        }
      ],
      "name": "approve",
      "outputs": [
        {
          "name": "",
          "type": "bool"
        }
      ],
      "payable": false,
      "stateMutability": "nonpayable",
      "type": "function"
    },
    {
      "constant": true,
      "inputs": [
        {
          "name": "_owner",
          "type": "address"
        },
        {
          "name": "_spender",
          "type": "address"
        }
      ],
      "name": "allowance",
      "outputs": [
        {
          "name": "",
          "type": "uint256"
        }
      ],
      "payable": false,
      "stateMutability": "view",
      "type": "function"
    }
  ],
  "bytecode": "0x60c0604052600760808190527f58595a436f696e0000000000000000000000000000000000000000000000000060a090815261003e91600091906100b9565b506040805180820190915260038082527f58595a00000000000000000000000000000000000000000000000000000000006020909201918252610083916001916100b9565b506002805460ff191690556103e86003553480156100a057600080fd5b5060035433600090815260046020526040902055610154565b828054600181600116156101000203166002900490600052602060002090601f016020900481019282601f106100fa57805160ff1916838001178555610127565b82800160010185558215610127579182015b8281111561012757825182559160200191906001019061010c565b50610133929150610137565b5090565b61015191905b80821115610133576000815560010161013d565b90565b610956806101636000396000f3fe6080604052600436106100d4577c0100000000000000000000000000000000000000000000000000000000600035046306fdde0381146100d9578063095ea7b31461016357806318160ddd146101b05780631f772a34146101d757806323b872dd146101ec57806327e235e31461022f578063313ce567146102625780633c4b303d1461028d5780634d2d0a3d146102a25780635c658165146102b757806370a08231146102f2578063947a31681461032557806395d89b411461033a578063a9059cbb1461034f578063dd62ed3e14610388575b600080fd5b3480156100e557600080fd5b506100ee6103c3565b6040805160208082528351818301528351919283929083019185019080838360005b83811015610128578181015183820152602001610110565b50505050905090810190601f1680156101555780820380516001836020036101000a031916815260200191505b509250505060405180910390f35b34801561016f57600080fd5b5061019c6004803603604081101561018657600080fd5b50600160a060020a038135169060200135610459565b604080519115158252519081900360200190f35b3480156101bc57600080fd5b506101c56104c2565b60408051918252519081900360200190f35b3480156101e357600080fd5b506100ee6104c8565b3480156101f857600080fd5b5061019c6004803603606081101561020f57600080fd5b50600160a060020a03813581169160208101359091169060400135610555565b34801561023b57600080fd5b506101c56004803603602081101561025257600080fd5b5035600160a060020a03166106f6565b34801561026e57600080fd5b50610277610708565b6040805160ff9092168252519081900360200190f35b34801561029957600080fd5b50610277610711565b3480156102ae57600080fd5b506101c561071a565b3480156102c357600080fd5b506101c5600480360360408110156102da57600080fd5b50600160a060020a0381358116916020013516610720565b3480156102fe57600080fd5b506101c56004803603602081101561031557600080fd5b5035600160a060020a031661073d565b34801561033157600080fd5b506100ee610758565b34801561034657600080fd5b506100ee6107b3565b34801561035b57600080fd5b5061019c6004803603604081101561037257600080fd5b50600160a060020a038135169060200135610813565b34801561039457600080fd5b506101c5600480360360408110156103ab57600080fd5b50600160a060020a03813581169160200135166108ff565b60008054604080516020601f600260001961010060018816150201909516949094049384018190048102820181019092528281526060939092909183018282801561044f5780601f106104245761010080835404028352916020019161044f565b820191906000526020600020905b81548152906001019060200180831161043257829003601f168201915b5050505050905090565b336000818152600560209081526040808320600160a060020a038716808552908352818420805487019055815186815291519394909390927f8c5be1e5ebec7d5bd14f71427d1e84f3dd0314c0f7b2291e5b200ac8c7c3b925928290030190a350600192915050565b60035490565b60018054604080516020600284861615610100026000190190941693909304601f8101849004840282018401909252818152929183018282801561054d5780601f106105225761010080835404028352916020019161054d565b820191906000526020600020905b81548152906001019060200180831161053057829003601f168201915b505050505081565b600160a060020a0383166000908152600460205260408120548211156105dc57604080517f08c379a000000000000000000000000000000000000000000000000000000000815260206004820152601460248201527f496e73756666696369656e742062616c616e6365000000000000000000000000604482015290519081900360640190fd5b600160a060020a038416600090815260056020908152604080832033845290915290205482111561066e57604080517f08c379a000000000000000000000000000000000000000000000000000000000815260206004820152601c60248201527f496e73756666696369656e7420616c6c6f7765642062616c616e636500000000604482015290519081900360640190fd5b600160a060020a0380851660008181526004602081815260408084208054899003905560058252808420338552825280842080548990039055948816808452918152918490208054870190558351868152935190937fddf252ad1be2c89b69c2b068fc378daa952ba7f163c4a11628f55a4df523b3ef92908290030190a35060019392505050565b60046020526000908152604090205481565b60025460ff1690565b60025460ff1681565b60035481565b600560209081526000928352604080842090915290825290205481565b600160a060020a031660009081526004602052604090205490565b6000805460408051602060026001851615610100026000190190941693909304601f8101849004840282018401909252818152929183018282801561054d5780601f106105225761010080835404028352916020019161054d565b60018054604080516020601f6002600019610100878916150201909516949094049384018190048102820181019092528281526060939092909183018282801561044f5780601f106104245761010080835404028352916020019161044f565b3360009081526004602052604081205482111561089157604080517f08c379a000000000000000000000000000000000000000000000000000000000815260206004820152601460248201527f496e73756666696369656e742062616c616e6365000000000000000000000000604482015290519081900360640190fd5b33600081815260046020908152604080832080548790039055600160a060020a03871680845292819020805487019055805186815290519293927fddf252ad1be2c89b69c2b068fc378daa952ba7f163c4a11628f55a4df523b3ef929181900390910190a350600192915050565b600160a060020a0391821660009081526005602090815260408083209390941682529190915220549056fea165627a7a723058200423e9d7fd85e932558ed41fc01fa7b9470481329c9700e7397e80ee5926c2150029",
  "source": "pragma solidity >=0.5.0;\r\nimport \"./ERC20.sol\";\r\n// implement the interface\r\ncontract XYZCoin is ERC20 {\r\n    // add global variables for the token name and symbol\r\n    string public token_name = \"XYZCoin\";\r\n    string public token_symbol = \"XYZ\";\r\n    // set the decimals to 0 and total supply to 1000\r\n    uint8 public token_decimals = 0;\r\n    uint256 public token_totalSupply = 1000;\r\n    // add two global variables for the balances of the owner and the spender\r\n    mapping(address => uint256) public balances; // This is used for the balances of the owner and the spender\r\n    mapping(address => mapping(address => uint256)) public allowed; // This used for the allowed balances of the owner and the spender\r\n\r\n    // add a constructor for the token\r\n    constructor() public {\r\n        // set the owner's balance to 1000\r\n        balances[msg.sender] = token_totalSupply;\r\n    }\r\n\r\n    // implement the token functions\r\n    function name() public view returns (string memory) {\r\n        return token_name;\r\n    }\r\n    function symbol() public view returns (string memory) {\r\n        return token_symbol;\r\n    }\r\n    function decimals() public view returns (uint8) {\r\n        return token_decimals;\r\n    }\r\n    function totalSupply() public view returns (uint256) {\r\n        return token_totalSupply;\r\n    }\r\n    function balanceOf(address _owner) public view returns (uint256) {\r\n        return balances[_owner];\r\n    }\r\n\r\n    // implement the transfer function\r\n    function transfer(address _to, uint256 _value) public returns (bool) {\r\n        // check if the owner has enough balance\r\n        require(_value <= balances[msg.sender], \"Insufficient balance\");\r\n        // subtract the balance of the owner\r\n        balances[msg.sender] -= _value;\r\n        // add the balance of the spender\r\n        balances[_to] += _value;\r\n        // emit the transfer event\r\n        emit Transfer(msg.sender, _to, _value);\r\n        return true;\r\n    }\r\n\r\n    // implement the transferFrom function\r\n    function transferFrom(address _from, address _to, uint256 _value) public returns (bool) {\r\n        // check if the owner has enough balance\r\n        require(_value <= balances[_from], \"Insufficient balance\");\r\n        // check if the spender has enough allowed balance\r\n        require(_value <= allowed[_from][msg.sender], \"Insufficient allowed balance\");\r\n        // subtract the balance of the owner\r\n        balances[_from] -= _value;\r\n        // subtract the allowed balance of the spender\r\n        allowed[_from][msg.sender] -= _value;\r\n        // add the balance of the spender\r\n        balances[_to] += _value;\r\n        // emit the transfer event\r\n        emit Transfer(_from, _to, _value);\r\n        return true;\r\n    }\r\n\r\n    // implement the approve function\r\n    function approve(address _spender, uint256 _value) public returns (bool) {\r\n        // add the allowed balance of the spender\r\n        allowed[msg.sender][_spender] += _value;\r\n        // emit the approval event\r\n        emit Approval(msg.sender, _spender, _value);\r\n        return true;\r\n    }\r\n\r\n    // implement the allowance function\r\n    function allowance(address _owner, address _spender) public view returns (uint256) {\r\n        return allowed[_owner][_spender];\r\n    }\r\n}",
  "sourcePath": "E:\\BlockDemo\\repository\\assignments\\lab_3\\question_4\\contracts\\XYZCoin.sol",
  "compiler": {
    "name": "solc",
    "version": "0.5.1+commit.c8a2cb62.Emscripten.clang"
  },
  "schemaVersion": "3.4.8",
  "updatedAt": "2022-08-06T08:31:45.073Z",
  "devdoc": {
    "methods": {}
  },
  "userdoc": {
    "methods": {}
  }
}